{
  "contractName": "Administrateur",
  "abi": [
    {
      "constant": true,
      "inputs": [
        {
          "internalType": "uint256",
          "name": "",
          "type": "uint256"
        }
      ],
      "name": "listRole",
      "outputs": [
        {
          "internalType": "string",
          "name": "",
          "type": "string"
        }
      ],
      "payable": false,
      "stateMutability": "view",
      "type": "function"
    },
    {
      "constant": false,
      "inputs": [
        {
          "internalType": "string",
          "name": "_idAdmin",
          "type": "string"
        },
        {
          "internalType": "string",
          "name": "_nomAdmin",
          "type": "string"
        },
        {
          "internalType": "string",
          "name": "_prenomAdmin",
          "type": "string"
        },
        {
          "internalType": "uint256",
          "name": "_numeroTel",
          "type": "uint256"
        },
        {
          "internalType": "string",
          "name": "_mailAdmin",
          "type": "string"
        }
      ],
      "name": "initAdministrateur",
      "outputs": [],
      "payable": false,
      "stateMutability": "nonpayable",
      "type": "function"
    },
    {
      "constant": false,
      "inputs": [
        {
          "internalType": "string",
          "name": "nv_role",
          "type": "string"
        },
        {
          "internalType": "string",
          "name": "_permission",
          "type": "string"
        }
      ],
      "name": "addRole",
      "outputs": [],
      "payable": false,
      "stateMutability": "nonpayable",
      "type": "function"
    },
    {
      "constant": true,
      "inputs": [
        {
          "internalType": "string",
          "name": "_typerole",
          "type": "string"
        }
      ],
      "name": "getRoleByName",
      "outputs": [
        {
          "internalType": "string",
          "name": "",
          "type": "string"
        },
        {
          "internalType": "string",
          "name": "",
          "type": "string"
        }
      ],
      "payable": false,
      "stateMutability": "view",
      "type": "function"
    },
    {
      "constant": true,
      "inputs": [],
      "name": "getAllRole",
      "outputs": [
        {
          "internalType": "string",
          "name": "",
          "type": "string"
        }
      ],
      "payable": false,
      "stateMutability": "view",
      "type": "function"
    },
    {
      "constant": false,
      "inputs": [
        {
          "internalType": "string",
          "name": "_rolePersonnel",
          "type": "string"
        },
        {
          "internalType": "string",
          "name": "nomPersonnel",
          "type": "string"
        },
        {
          "internalType": "string",
          "name": "prenomPersonnel",
          "type": "string"
        },
        {
          "internalType": "string",
          "name": "mailPersonnel",
          "type": "string"
        }
      ],
      "name": "creatNewPersonnel",
      "outputs": [],
      "payable": false,
      "stateMutability": "nonpayable",
      "type": "function"
    }
  ],
  "bytecode": "0x608060405234801561001057600080fd5b50611227806100206000396000f3fe608060405234801561001057600080fd5b50600436106100625760003560e01c8063199218c91461006757806353a9020e146102e7578063b79d8f3c14610487578063dd517fae14610711578063eb07d08114610863578063fa1b7e161461090a575b600080fd5b6102e56004803603608081101561007d57600080fd5b810190808035906020019064010000000081111561009a57600080fd5b8201836020820111156100ac57600080fd5b803590602001918460018302840111640100000000831117156100ce57600080fd5b91908080601f016020809104026020016040519081016040528093929190818152602001838380828437600081840152601f19601f8201169050808301925050505050505091929192908035906020019064010000000081111561013157600080fd5b82018360208201111561014357600080fd5b8035906020019184600183028401116401000000008311171561016557600080fd5b91908080601f016020809104026020016040519081016040528093929190818152602001838380828437600081840152601f19601f820116905080830192505050505050509192919290803590602001906401000000008111156101c857600080fd5b8201836020820111156101da57600080fd5b803590602001918460018302840111640100000000831117156101fc57600080fd5b91908080601f016020809104026020016040519081016040528093929190818152602001838380828437600081840152601f19601f8201169050808301925050505050505091929192908035906020019064010000000081111561025f57600080fd5b82018360208201111561027157600080fd5b8035906020019184600183028401116401000000008311171561029357600080fd5b91908080601f016020809104026020016040519081016040528093929190818152602001838380828437600081840152601f19601f82011690508083019250505050505050919291929050505061098d565b005b6103a0600480360360208110156102fd57600080fd5b810190808035906020019064010000000081111561031a57600080fd5b82018360208201111561032c57600080fd5b8035906020019184600183028401116401000000008311171561034e57600080fd5b91908080601f016020809104026020016040519081016040528093929190818152602001838380828437600081840152601f19601f820116905080830192505050505050509192919290505050610c5a565b604051808060200180602001838103835285818151815260200191508051906020019080838360005b838110156103e45780820151818401526020810190506103c9565b50505050905090810190601f1680156104115780820380516001836020036101000a031916815260200191505b50838103825284818151815260200191508051906020019080838360005b8381101561044a57808201518184015260208101905061042f565b50505050905090810190601f1680156104775780820380516001836020036101000a031916815260200191505b5094505050505060405180910390f35b61070f600480360360a081101561049d57600080fd5b81019080803590602001906401000000008111156104ba57600080fd5b8201836020820111156104cc57600080fd5b803590602001918460018302840111640100000000831117156104ee57600080fd5b91908080601f016020809104026020016040519081016040528093929190818152602001838380828437600081840152601f19601f8201169050808301925050505050505091929192908035906020019064010000000081111561055157600080fd5b82018360208201111561056357600080fd5b8035906020019184600183028401116401000000008311171561058557600080fd5b91908080601f016020809104026020016040519081016040528093929190818152602001838380828437600081840152601f19601f820116905080830192505050505050509192919290803590602001906401000000008111156105e857600080fd5b8201836020820111156105fa57600080fd5b8035906020019184600183028401116401000000008311171561061c57600080fd5b91908080601f016020809104026020016040519081016040528093929190818152602001838380828437600081840152601f19601f820116905080830192505050505050509192919290803590602001909291908035906020019064010000000081111561068957600080fd5b82018360208201111561069b57600080fd5b803590602001918460018302840111640100000000831117156106bd57600080fd5b91908080601f016020809104026020016040519081016040528093929190818152602001838380828437600081840152601f19601f820116905080830192505050505050509192919290505050610e14565b005b6108616004803603604081101561072757600080fd5b810190808035906020019064010000000081111561074457600080fd5b82018360208201111561075657600080fd5b8035906020019184600183028401116401000000008311171561077857600080fd5b91908080601f016020809104026020016040519081016040528093929190818152602001838380828437600081840152601f19601f820116905080830192505050505050509192919290803590602001906401000000008111156107db57600080fd5b8201836020820111156107ed57600080fd5b8035906020019184600183028401116401000000008311171561080f57600080fd5b91908080601f016020809104026020016040519081016040528093929190818152602001838380828437600081840152601f19601f820116905080830192505050505050509192919290505050610e7e565b005b61088f6004803603602081101561087957600080fd5b8101908080359060200190929190505050610fc3565b6040518080602001828103825283818151815260200191508051906020019080838360005b838110156108cf5780820151818401526020810190506108b4565b50505050905090810190601f1680156108fc5780820380516001836020036101000a031916815260200191505b509250505060405180910390f35b61091261107c565b6040518080602001828103825283818151815260200191508051906020019080838360005b83811015610952578082015181840152602081019050610937565b50505050905090810190601f16801561097f5780820380516001836020036101000a031916815260200191505b509250505060405180910390f35b60006005856040518082805190602001908083835b602083106109c557805182526020820191506020810190506020830392506109a2565b6001836020036101000a03801982511681845116808217855250505050505090500191505090815260200160405180910390209050600760009054906101000a900473ffffffffffffffffffffffffffffffffffffffff1673ffffffffffffffffffffffffffffffffffffffff1663c039be5b826000018686866040518563ffffffff1660e01b81526004018080602001806020018060200180602001858103855289818154600181600116156101000203166002900481526020019150805460018160011615610100020316600290048015610ae35780601f10610ab857610100808354040283529160200191610ae3565b820191906000526020600020905b815481529060010190602001808311610ac657829003601f168201915b5050858103845288818151815260200191508051906020019080838360005b83811015610b1d578082015181840152602081019050610b02565b50505050905090810190601f168015610b4a5780820380516001836020036101000a031916815260200191505b50858103835287818151815260200191508051906020019080838360005b83811015610b83578082015181840152602081019050610b68565b50505050905090810190601f168015610bb05780820380516001836020036101000a031916815260200191505b50858103825286818151815260200191508051906020019080838360005b83811015610be9578082015181840152602081019050610bce565b50505050905090810190601f168015610c165780820380516001836020036101000a031916815260200191505b5098505050505050505050600060405180830381600087803b158015610c3b57600080fd5b505af1158015610c4f573d6000803e3d6000fd5b505050505050505050565b60608060006005846040518082805190602001908083835b60208310610c955780518252602082019150602081019050602083039250610c72565b6001836020036101000a038019825116818451168082178552505050505050905001915050908152602001604051809103902090508060000181600101818054600181600116156101000203166002900480601f016020809104026020016040519081016040528092919081815260200182805460018160011615610100020316600290048015610d675780601f10610d3c57610100808354040283529160200191610d67565b820191906000526020600020905b815481529060010190602001808311610d4a57829003601f168201915b50505050509150808054600181600116156101000203166002900480601f016020809104026020016040519081016040528092919081815260200182805460018160011615610100020316600290048015610e035780601f10610dd857610100808354040283529160200191610e03565b820191906000526020600020905b815481529060010190602001808311610de657829003601f168201915b505050505090509250925050915091565b8460009080519060200190610e2a92919061114d565b508360019080519060200190610e4192919061114d565b508260029080519060200190610e5892919061114d565b50816003819055508060049080519060200190610e7692919061114d565b505050505050565b816005836040518082805190602001908083835b60208310610eb55780518252602082019150602081019050602083039250610e92565b6001836020036101000a03801982511681845116808217855250505050505090500191505090815260200160405180910390206000019080519060200190610efe92919061114d565b50806005836040518082805190602001908083835b60208310610f365780518252602082019150602081019050602083039250610f13565b6001836020036101000a03801982511681845116808217855250505050505090500191505090815260200160405180910390206001019080519060200190610f7f92919061114d565b506006829080600181540180825580915050906001820390600052602060002001600090919290919091509080519060200190610fbd92919061114d565b50505050565b60068181548110610fd057fe5b906000526020600020016000915090508054600181600116156101000203166002900480601f0160208091040260200160405190810160405280929190818152602001828054600181600116156101000203166002900480156110745780601f1061104957610100808354040283529160200191611074565b820191906000526020600020905b81548152906001019060200180831161105757829003601f168201915b505050505081565b60606000809050600680549050811015611148576006818154811061109d57fe5b906000526020600020018054600181600116156101000203166002900480601f01602080910402602001604051908101604052809291908181526020018280546001816001161561010002031660029004801561113b5780601f106111105761010080835404028352916020019161113b565b820191906000526020600020905b81548152906001019060200180831161111e57829003601f168201915b505050505091505061114a565b505b90565b828054600181600116156101000203166002900490600052602060002090601f016020900481019282601f1061118e57805160ff19168380011785556111bc565b828001600101855582156111bc579182015b828111156111bb5782518255916020019190600101906111a0565b5b5090506111c991906111cd565b5090565b6111ef91905b808211156111eb5760008160009055506001016111d3565b5090565b9056fea265627a7a72315820bad7100fd3d172a413b937ad9d9a98fab8a97446e4145c6aa29ca9f1d7b39c4a64736f6c63430005100032",
  "source": "// SPDX-License-Identifier: MIT\n\npragma solidity >=0.4.21 <0.7.0;\nimport './PersonnelsSante.sol';\n\ncontract Administrateur {\n\n\n\n        string idAdmin;\n        string nomAdmin;\n        string prenomAdmin;\n        uint   numeroTel;\n        string mailAdmin;\n        \n    //declaration de structure pour les roles \n    struct role_Struct{\n\n        string typeRole;\n        string permission;\n    }\n    mapping(string => role_Struct) Role;\n    \n    string[] public listRole;\n           \n        PersonnelsSante Employe;\n\n        function initAdministrateur(\n        string memory _idAdmin,\n        string memory _nomAdmin,\n        string memory _prenomAdmin,\n        uint          _numeroTel,\n        string memory _mailAdmin\n         ) public {\n                    idAdmin = _idAdmin;\n                    nomAdmin = _nomAdmin;\n                    prenomAdmin = _prenomAdmin;\n                    numeroTel = _numeroTel;\n                    mailAdmin = _mailAdmin;\n\n       \n        }\n\n        function addRole(string memory nv_role, string memory _permission) public {\n       // uint256  newRole = listRole.length + 1;\n\n        Role[nv_role].typeRole = nv_role;\n        Role[nv_role].permission = _permission;\n        \n         listRole.push(nv_role);\n\n         }\n\n\n\n    function getRoleByName(string memory _typerole) public view returns (string memory, string memory) {\n         //cree une celle (struct) pour contenir le role stoqué dans la blockchain\n         role_Struct storage tmp = Role[_typerole];\n        \n        return ( tmp.typeRole, tmp.permission);\n        \n    }\n\n    function getAllRole() public view returns (string memory) {\n        //récupéré les nom de roles contenu dans le tableau listRole\n         for(uint i = 0; i < listRole.length; i++)\n        {\n        return listRole[i];\n        }\n        \n    }\n\n    function creatNewPersonnel(\n        string memory _rolePersonnel,\n        string memory nomPersonnel,\n        string memory prenomPersonnel,\n        string memory mailPersonnel\n    ) public {\n        //récupéré role avec le nom de role \n        role_Struct storage tmp = Role[_rolePersonnel];\n\n         //cree un nouveau personnel de ssante \n       Employe.setNewPersonnel(tmp.typeRole,nomPersonnel,prenomPersonnel,mailPersonnel);\n    }\n\n}\n",
  "sourcePath": "/root/memoire1.1/smart-contract-health-care/contracts/Administrateur.sol",
  "compiler": {
    "name": "solc",
    "version": "0.5.16+commit.9c3226ce.Emscripten.clang"
  },
  "schemaVersion": "3.1.0",
  "updatedAt": "2020-06-07T11:34:53.615Z",
  "networkType": "ethereum",
  "devdoc": {
    "methods": {}
  },
  "userdoc": {
    "methods": {}
  }
}