{
  "contractName": "Administrateur",
  "abi": [
    {
      "constant": true,
      "inputs": [
        {
          "internalType": "uint256",
          "name": "",
          "type": "uint256"
        }
      ],
      "name": "listRole",
      "outputs": [
        {
          "internalType": "string",
          "name": "",
          "type": "string"
        }
      ],
      "payable": false,
      "stateMutability": "view",
      "type": "function"
    },
    {
      "constant": false,
      "inputs": [
        {
          "internalType": "string",
          "name": "_idAdmin",
          "type": "string"
        },
        {
          "internalType": "string",
          "name": "_nomAdmin",
          "type": "string"
        },
        {
          "internalType": "string",
          "name": "_prenomAdmin",
          "type": "string"
        },
        {
          "internalType": "uint256",
          "name": "_numeroTel",
          "type": "uint256"
        },
        {
          "internalType": "string",
          "name": "_mailAdmin",
          "type": "string"
        }
      ],
      "name": "initAdministrateur",
      "outputs": [],
      "payable": false,
      "stateMutability": "nonpayable",
      "type": "function"
    },
    {
      "constant": false,
      "inputs": [
        {
          "internalType": "string",
          "name": "nv_role",
          "type": "string"
        },
        {
          "internalType": "string",
          "name": "_permission",
          "type": "string"
        }
      ],
      "name": "addRole",
      "outputs": [],
      "payable": false,
      "stateMutability": "nonpayable",
      "type": "function"
    },
    {
      "constant": true,
      "inputs": [
        {
          "internalType": "string",
          "name": "_typerole",
          "type": "string"
        }
      ],
      "name": "getRoleByName",
      "outputs": [
        {
          "internalType": "string",
          "name": "",
          "type": "string"
        },
        {
          "internalType": "string",
          "name": "",
          "type": "string"
        }
      ],
      "payable": false,
      "stateMutability": "view",
      "type": "function"
    },
    {
      "constant": true,
      "inputs": [],
      "name": "getAllRole",
      "outputs": [
        {
          "internalType": "string",
          "name": "",
          "type": "string"
        }
      ],
      "payable": false,
      "stateMutability": "view",
      "type": "function"
    }
  ],
  "bytecode": "0x608060405234801561001057600080fd5b50610ccf806100206000396000f3fe608060405234801561001057600080fd5b50600436106100575760003560e01c806353a9020e1461005c578063b79d8f3c146101fc578063dd517fae14610486578063eb07d081146105d8578063fa1b7e161461067f575b600080fd5b6101156004803603602081101561007257600080fd5b810190808035906020019064010000000081111561008f57600080fd5b8201836020820111156100a157600080fd5b803590602001918460018302840111640100000000831117156100c357600080fd5b91908080601f016020809104026020016040519081016040528093929190818152602001838380828437600081840152601f19601f820116905080830192505050505050509192919290505050610702565b604051808060200180602001838103835285818151815260200191508051906020019080838360005b8381101561015957808201518184015260208101905061013e565b50505050905090810190601f1680156101865780820380516001836020036101000a031916815260200191505b50838103825284818151815260200191508051906020019080838360005b838110156101bf5780820151818401526020810190506101a4565b50505050905090810190601f1680156101ec5780820380516001836020036101000a031916815260200191505b5094505050505060405180910390f35b610484600480360360a081101561021257600080fd5b810190808035906020019064010000000081111561022f57600080fd5b82018360208201111561024157600080fd5b8035906020019184600183028401116401000000008311171561026357600080fd5b91908080601f016020809104026020016040519081016040528093929190818152602001838380828437600081840152601f19601f820116905080830192505050505050509192919290803590602001906401000000008111156102c657600080fd5b8201836020820111156102d857600080fd5b803590602001918460018302840111640100000000831117156102fa57600080fd5b91908080601f016020809104026020016040519081016040528093929190818152602001838380828437600081840152601f19601f8201169050808301925050505050505091929192908035906020019064010000000081111561035d57600080fd5b82018360208201111561036f57600080fd5b8035906020019184600183028401116401000000008311171561039157600080fd5b91908080601f016020809104026020016040519081016040528093929190818152602001838380828437600081840152601f19601f82011690508083019250505050505050919291929080359060200190929190803590602001906401000000008111156103fe57600080fd5b82018360208201111561041057600080fd5b8035906020019184600183028401116401000000008311171561043257600080fd5b91908080601f016020809104026020016040519081016040528093929190818152602001838380828437600081840152601f19601f8201169050808301925050505050505091929192905050506108bc565b005b6105d66004803603604081101561049c57600080fd5b81019080803590602001906401000000008111156104b957600080fd5b8201836020820111156104cb57600080fd5b803590602001918460018302840111640100000000831117156104ed57600080fd5b91908080601f016020809104026020016040519081016040528093929190818152602001838380828437600081840152601f19601f8201169050808301925050505050505091929192908035906020019064010000000081111561055057600080fd5b82018360208201111561056257600080fd5b8035906020019184600183028401116401000000008311171561058457600080fd5b91908080601f016020809104026020016040519081016040528093929190818152602001838380828437600081840152601f19601f820116905080830192505050505050509192919290505050610926565b005b610604600480360360208110156105ee57600080fd5b8101908080359060200190929190505050610a6b565b6040518080602001828103825283818151815260200191508051906020019080838360005b83811015610644578082015181840152602081019050610629565b50505050905090810190601f1680156106715780820380516001836020036101000a031916815260200191505b509250505060405180910390f35b610687610b24565b6040518080602001828103825283818151815260200191508051906020019080838360005b838110156106c75780820151818401526020810190506106ac565b50505050905090810190601f1680156106f45780820380516001836020036101000a031916815260200191505b509250505060405180910390f35b60608060006005846040518082805190602001908083835b6020831061073d578051825260208201915060208101905060208303925061071a565b6001836020036101000a038019825116818451168082178552505050505050905001915050908152602001604051809103902090508060000181600101818054600181600116156101000203166002900480601f01602080910402602001604051908101604052809291908181526020018280546001816001161561010002031660029004801561080f5780601f106107e45761010080835404028352916020019161080f565b820191906000526020600020905b8154815290600101906020018083116107f257829003601f168201915b50505050509150808054600181600116156101000203166002900480601f0160208091040260200160405190810160405280929190818152602001828054600181600116156101000203166002900480156108ab5780601f10610880576101008083540402835291602001916108ab565b820191906000526020600020905b81548152906001019060200180831161088e57829003601f168201915b505050505090509250925050915091565b84600090805190602001906108d2929190610bf5565b5083600190805190602001906108e9929190610bf5565b508260029080519060200190610900929190610bf5565b5081600381905550806004908051906020019061091e929190610bf5565b505050505050565b816005836040518082805190602001908083835b6020831061095d578051825260208201915060208101905060208303925061093a565b6001836020036101000a038019825116818451168082178552505050505050905001915050908152602001604051809103902060000190805190602001906109a6929190610bf5565b50806005836040518082805190602001908083835b602083106109de57805182526020820191506020810190506020830392506109bb565b6001836020036101000a03801982511681845116808217855250505050505090500191505090815260200160405180910390206001019080519060200190610a27929190610bf5565b506006829080600181540180825580915050906001820390600052602060002001600090919290919091509080519060200190610a65929190610bf5565b50505050565b60068181548110610a7857fe5b906000526020600020016000915090508054600181600116156101000203166002900480601f016020809104026020016040519081016040528092919081815260200182805460018160011615610100020316600290048015610b1c5780601f10610af157610100808354040283529160200191610b1c565b820191906000526020600020905b815481529060010190602001808311610aff57829003601f168201915b505050505081565b60606000809050600680549050811015610bf05760068181548110610b4557fe5b906000526020600020018054600181600116156101000203166002900480601f016020809104026020016040519081016040528092919081815260200182805460018160011615610100020316600290048015610be35780601f10610bb857610100808354040283529160200191610be3565b820191906000526020600020905b815481529060010190602001808311610bc657829003601f168201915b5050505050915050610bf2565b505b90565b828054600181600116156101000203166002900490600052602060002090601f016020900481019282601f10610c3657805160ff1916838001178555610c64565b82800160010185558215610c64579182015b82811115610c63578251825591602001919060010190610c48565b5b509050610c719190610c75565b5090565b610c9791905b80821115610c93576000816000905550600101610c7b565b5090565b9056fea265627a7a72315820cfa285255e06c1dde5c7cd82c3ab4ad370b5b59560f95a52e7d0a0e9e6fcd1c164736f6c63430005100032",
  "source": "// SPDX-License-Identifier: MIT\n\npragma solidity >=0.4.21 <0.7.0;\nimport \"./PersonnelsSante.sol\";\n\n\ncontract Administrateur {\n    string idAdmin;\n    string nomAdmin;\n    string prenomAdmin;\n    uint256 numeroTel;\n    string mailAdmin;\n\n    //declaration de structure pour les roles\n    struct role_Struct {\n        string typeRole;\n        string permission;\n    }\n    mapping(string => role_Struct) Role;\n\n    string[] public listRole;\n\n    PersonnelsSante Employe;\n\n    function initAdministrateur(\n        string memory _idAdmin,\n        string memory _nomAdmin,\n        string memory _prenomAdmin,\n        uint256 _numeroTel,\n        string memory _mailAdmin\n    ) public {\n        idAdmin = _idAdmin;\n        nomAdmin = _nomAdmin;\n        prenomAdmin = _prenomAdmin;\n        numeroTel = _numeroTel;\n        mailAdmin = _mailAdmin;\n    }\n\n    function addRole(string memory nv_role, string memory _permission) public {\n        // uint256  newRole = listRole.length + 1;\n\n        Role[nv_role].typeRole = nv_role;\n        Role[nv_role].permission = _permission;\n\n        listRole.push(nv_role);\n    }\n\n    function getRoleByName(string memory _typerole)\n        public\n        view\n        returns (string memory, string memory)\n    {\n        //cree une celle (struct) pour contenir le role stoqué dans la blockchain\n        role_Struct storage tmp = Role[_typerole];\n\n        return (tmp.typeRole, tmp.permission);\n    }\n\n    function getAllRole() public view returns (string memory) {\n        //récupéré les nom de roles contenu dans le tableau listRole\n        for (uint256 i = 0; i < listRole.length; i++) {\n            return listRole[i];\n        }\n    }\n    /*\n    function creatNewPersonnel(\n        string memory _rolePersonnel,\n        string memory nomPersonnel,\n        string memory prenomPersonnel,\n        string memory mailPersonnel\n    ) public {\n        //récupéré role avec le nom de role \n        role_Struct storage tmp = Role[_rolePersonnel];\n\n         //cree un nouveau personnel de ssante \n       Employe.setNewPersonnel(tmp.typeRole,nomPersonnel,prenomPersonnel,mailPersonnel);\n    }\n*/\n}\n",
  "sourcePath": "/root/memoire1.1/smart-contract-health-care/contracts/Administrateur.sol",
  "compiler": {
    "name": "solc",
    "version": "0.5.16+commit.9c3226ce.Emscripten.clang"
  },
  "schemaVersion": "3.1.0",
  "updatedAt": "2020-06-13T18:11:21.149Z",
  "networkType": "ethereum",
  "devdoc": {
    "methods": {}
  },
  "userdoc": {
    "methods": {}
  }
}