{
  "contractName": "PersonnelsSante",
  "abi": [
    {
      "constant": true,
      "inputs": [
        {
          "internalType": "uint256",
          "name": "",
          "type": "uint256"
        }
      ],
      "name": "listPersonnel",
      "outputs": [
        {
          "internalType": "uint256",
          "name": "",
          "type": "uint256"
        }
      ],
      "payable": false,
      "stateMutability": "view",
      "type": "function"
    },
    {
      "constant": false,
      "inputs": [
        {
          "internalType": "string",
          "name": "rolePersonnel",
          "type": "string"
        },
        {
          "internalType": "string",
          "name": "nomPersonnel",
          "type": "string"
        },
        {
          "internalType": "string",
          "name": "prenomPersonnel",
          "type": "string"
        },
        {
          "internalType": "string",
          "name": "mailPersonnel",
          "type": "string"
        }
      ],
      "name": "setNewPersonnel",
      "outputs": [],
      "payable": false,
      "stateMutability": "nonpayable",
      "type": "function"
    },
    {
      "constant": true,
      "inputs": [],
      "name": "getAllid",
      "outputs": [
        {
          "internalType": "uint256[]",
          "name": "",
          "type": "uint256[]"
        }
      ],
      "payable": false,
      "stateMutability": "view",
      "type": "function"
    },
    {
      "constant": true,
      "inputs": [
        {
          "internalType": "uint256",
          "name": "idPersonnel",
          "type": "uint256"
        }
      ],
      "name": "getRolePersonnel",
      "outputs": [
        {
          "internalType": "string",
          "name": "",
          "type": "string"
        }
      ],
      "payable": false,
      "stateMutability": "view",
      "type": "function"
    },
    {
      "constant": true,
      "inputs": [
        {
          "internalType": "uint256",
          "name": "idPersonnel",
          "type": "uint256"
        }
      ],
      "name": "getNomPersonnel",
      "outputs": [
        {
          "internalType": "string",
          "name": "",
          "type": "string"
        }
      ],
      "payable": false,
      "stateMutability": "view",
      "type": "function"
    },
    {
      "constant": true,
      "inputs": [
        {
          "internalType": "uint256",
          "name": "idPersonnel",
          "type": "uint256"
        }
      ],
      "name": "getPrenomPersonnel",
      "outputs": [
        {
          "internalType": "string",
          "name": "",
          "type": "string"
        }
      ],
      "payable": false,
      "stateMutability": "view",
      "type": "function"
    },
    {
      "constant": true,
      "inputs": [
        {
          "internalType": "uint256",
          "name": "idPersonnel",
          "type": "uint256"
        }
      ],
      "name": "getMailPersonnel",
      "outputs": [
        {
          "internalType": "string",
          "name": "",
          "type": "string"
        }
      ],
      "payable": false,
      "stateMutability": "view",
      "type": "function"
    }
  ],
  "bytecode": "0x608060405234801561001057600080fd5b50610b87806100206000396000f3fe608060405234801561001057600080fd5b506004361061007d5760003560e01c8063b0d853e71161005b578063b0d853e71461022f578063c039be5b146102d6578063cbb1d6b614610556578063d7569c2e146105985761007d565b806321a7df88146100825780633736f880146101295780636fbac10814610188575b600080fd5b6100ae6004803603602081101561009857600080fd5b810190808035906020019092919050505061063f565b6040518080602001828103825283818151815260200191508051906020019080838360005b838110156100ee5780820151818401526020810190506100d3565b50505050905090810190601f16801561011b5780820380516001836020036101000a031916815260200191505b509250505060405180910390f35b6101316106fc565b6040518080602001828103825283818151815260200191508051906020019060200280838360005b83811015610174578082015181840152602081019050610159565b505050509050019250505060405180910390f35b6101b46004803603602081101561019e57600080fd5b8101908080359060200190929190505050610754565b6040518080602001828103825283818151815260200191508051906020019080838360005b838110156101f45780820151818401526020810190506101d9565b50505050905090810190601f1680156102215780820380516001836020036101000a031916815260200191505b509250505060405180910390f35b61025b6004803603602081101561024557600080fd5b8101908080359060200190929190505050610811565b6040518080602001828103825283818151815260200191508051906020019080838360005b8381101561029b578082015181840152602081019050610280565b50505050905090810190601f1680156102c85780820380516001836020036101000a031916815260200191505b509250505060405180910390f35b610554600480360360808110156102ec57600080fd5b810190808035906020019064010000000081111561030957600080fd5b82018360208201111561031b57600080fd5b8035906020019184600183028401116401000000008311171561033d57600080fd5b91908080601f016020809104026020016040519081016040528093929190818152602001838380828437600081840152601f19601f820116905080830192505050505050509192919290803590602001906401000000008111156103a057600080fd5b8201836020820111156103b257600080fd5b803590602001918460018302840111640100000000831117156103d457600080fd5b91908080601f016020809104026020016040519081016040528093929190818152602001838380828437600081840152601f19601f8201169050808301925050505050505091929192908035906020019064010000000081111561043757600080fd5b82018360208201111561044957600080fd5b8035906020019184600183028401116401000000008311171561046b57600080fd5b91908080601f016020809104026020016040519081016040528093929190818152602001838380828437600081840152601f19601f820116905080830192505050505050509192919290803590602001906401000000008111156104ce57600080fd5b8201836020820111156104e057600080fd5b8035906020019184600183028401116401000000008311171561050257600080fd5b91908080601f016020809104026020016040519081016040528093929190818152602001838380828437600081840152601f19601f8201169050808301925050505050505091929192905050506108ce565b005b6105826004803603602081101561056c57600080fd5b81019080803590602001909291905050506109cf565b6040518082815260200191505060405180910390f35b6105c4600480360360208110156105ae57600080fd5b81019080803590602001909291905050506109f0565b6040518080602001828103825283818151815260200191508051906020019080838360005b838110156106045780820151818401526020810190506105e9565b50505050905090810190601f1680156106315780820380516001836020036101000a031916815260200191505b509250505060405180910390f35b606060008060008481526020019081526020016000209050806003018054600181600116156101000203166002900480601f0160208091040260200160405190810160405280929190818152602001828054600181600116156101000203166002900480156106ef5780601f106106c4576101008083540402835291602001916106ef565b820191906000526020600020905b8154815290600101906020018083116106d257829003601f168201915b5050505050915050919050565b6060600180548060200260200160405190810160405280929190818152602001828054801561074a57602002820191906000526020600020905b815481526020019060010190808311610736575b5050505050905090565b606060008060008481526020019081526020016000209050806002018054600181600116156101000203166002900480601f0160208091040260200160405190810160405280929190818152602001828054600181600116156101000203166002900480156108045780601f106107d957610100808354040283529160200191610804565b820191906000526020600020905b8154815290600101906020018083116107e757829003601f168201915b5050505050915050919050565b606060008060008481526020019081526020016000209050806001018054600181600116156101000203166002900480601f0160208091040260200160405190810160405280929190818152602001828054600181600116156101000203166002900480156108c15780601f10610896576101008083540402835291602001916108c1565b820191906000526020600020905b8154815290600101906020018083116108a457829003601f168201915b5050505050915050919050565b600060018080549050019050806000808381526020019081526020016000206000018190555084600080838152602001908152602001600020600101908051906020019061091d929190610aad565b50836000808381526020019081526020016000206002019080519060200190610947929190610aad565b50826000808381526020019081526020016000206003019080519060200190610971929190610aad565b5081600080838152602001908152602001600020600401908051906020019061099b929190610aad565b5060018190806001815401808255809150509060018203906000526020600020016000909192909190915055505050505050565b600181815481106109dc57fe5b906000526020600020016000915090505481565b606060008060008481526020019081526020016000209050806004018054600181600116156101000203166002900480601f016020809104026020016040519081016040528092919081815260200182805460018160011615610100020316600290048015610aa05780601f10610a7557610100808354040283529160200191610aa0565b820191906000526020600020905b815481529060010190602001808311610a8357829003601f168201915b5050505050915050919050565b828054600181600116156101000203166002900490600052602060002090601f016020900481019282601f10610aee57805160ff1916838001178555610b1c565b82800160010185558215610b1c579182015b82811115610b1b578251825591602001919060010190610b00565b5b509050610b299190610b2d565b5090565b610b4f91905b80821115610b4b576000816000905550600101610b33565b5090565b9056fea265627a7a723158203563948d1ad0824dc2b9268ec221f5f852369a068b1591b6b6a8caa4fad8e7f164736f6c63430005100032",
  "source": "// SPDX-License-Identifier: MIT\r\n\r\npragma solidity >=0.4.21 <0.7.0;\r\n\r\n\r\ncontract PersonnelsSante {\r\n\r\n    struct PersonnelSante {\r\n        uint256 idPersonnel;\r\n        string rolePersonnel;\r\n        string nomPersonnel;\r\n        string prenomPersonnel;\r\n        string mailPersonnel;\r\n    }\r\n\r\n    mapping(uint256 => PersonnelSante) PersonnelSante_Struct;\r\n    \r\n    uint256[] public listPersonnel;\r\n   \r\n\r\n    function setNewPersonnel(\r\n        string memory rolePersonnel,\r\n        string memory nomPersonnel,\r\n        string memory prenomPersonnel,\r\n        string memory mailPersonnel\r\n    ) public {\r\n       // PersonnelSante_Struct[msg.sender].address_sender = msg.sender;\r\n          uint256  newidPersonnel = listPersonnel.length + 1;\r\n       \r\n\r\n        PersonnelSante_Struct[newidPersonnel].idPersonnel = newidPersonnel;\r\n        PersonnelSante_Struct[newidPersonnel].rolePersonnel = rolePersonnel;\r\n        PersonnelSante_Struct[newidPersonnel].nomPersonnel = nomPersonnel;\r\n        PersonnelSante_Struct[newidPersonnel].prenomPersonnel = prenomPersonnel;\r\n        PersonnelSante_Struct[newidPersonnel].mailPersonnel = mailPersonnel;\r\n\r\n         listPersonnel.push(newidPersonnel);\r\n    }\r\n\r\n\r\n    function getAllid() public view returns (uint256[] memory) {\r\n        return listPersonnel;\r\n    }\r\n  \r\n   \r\n\r\n    function getRolePersonnel(uint256 idPersonnel) public view returns (string memory) {\r\n        PersonnelSante storage tmp = PersonnelSante_Struct[idPersonnel];\r\n        return tmp.rolePersonnel;\r\n    }\r\n\r\n    function getNomPersonnel(uint256 idPersonnel) public view returns (string memory) {\r\n        PersonnelSante storage tmp = PersonnelSante_Struct[idPersonnel];\r\n        return tmp.nomPersonnel;\r\n    }\r\n\r\n    function getPrenomPersonnel(uint256 idPersonnel) public view returns (string memory) {\r\n        PersonnelSante storage tmp = PersonnelSante_Struct[idPersonnel];\r\n        return tmp.prenomPersonnel;\r\n    }\r\n\r\n    function getMailPersonnel(uint256 idPersonnel) public view returns (string memory) {\r\n        PersonnelSante storage tmp = PersonnelSante_Struct[idPersonnel];\r\n        return tmp.mailPersonnel;\r\n    }\r\n}\r\n",
  "sourcePath": "C:\\Users\\Abdelillah\\Desktop\\Epfe1\\Final\\contracts\\PersonnelsSante.sol",
  "compiler": {
    "name": "solc",
    "version": "0.5.16+commit.9c3226ce.Emscripten.clang"
  },
  "schemaVersion": "3.2.0",
  "updatedAt": "2020-06-09T15:26:54.746Z",
  "networkType": "ethereum",
  "devdoc": {
    "methods": {}
  },
  "userdoc": {
    "methods": {}
  }
}