{
  "contractName": "PersonnelsSante",
  "abi": [
    {
      "inputs": [],
      "payable": false,
      "stateMutability": "nonpayable",
      "type": "constructor"
    },
    {
      "constant": true,
      "inputs": [
        {
          "internalType": "uint256",
          "name": "",
          "type": "uint256"
        }
      ],
      "name": "listPersonnel",
      "outputs": [
        {
          "internalType": "uint256",
          "name": "",
          "type": "uint256"
        }
      ],
      "payable": false,
      "stateMutability": "view",
      "type": "function"
    },
    {
      "constant": true,
      "inputs": [],
      "name": "nombrePersonnels",
      "outputs": [
        {
          "internalType": "uint256",
          "name": "",
          "type": "uint256"
        }
      ],
      "payable": false,
      "stateMutability": "view",
      "type": "function"
    },
    {
      "constant": false,
      "inputs": [
        {
          "internalType": "string",
          "name": "rolePersonnel",
          "type": "string"
        },
        {
          "internalType": "string",
          "name": "nomPersonnel",
          "type": "string"
        },
        {
          "internalType": "string",
          "name": "prenomPersonnel",
          "type": "string"
        },
        {
          "internalType": "string",
          "name": "mailPersonnel",
          "type": "string"
        }
      ],
      "name": "setNewPersonnel",
      "outputs": [],
      "payable": false,
      "stateMutability": "nonpayable",
      "type": "function"
    },
    {
      "constant": true,
      "inputs": [],
      "name": "getNombrePersonnels",
      "outputs": [
        {
          "internalType": "uint256",
          "name": "",
          "type": "uint256"
        }
      ],
      "payable": false,
      "stateMutability": "view",
      "type": "function"
    },
    {
      "constant": true,
      "inputs": [],
      "name": "getAllid",
      "outputs": [
        {
          "internalType": "uint256[]",
          "name": "",
          "type": "uint256[]"
        }
      ],
      "payable": false,
      "stateMutability": "view",
      "type": "function"
    },
    {
      "constant": true,
      "inputs": [
        {
          "internalType": "uint256",
          "name": "idPersonnel",
          "type": "uint256"
        }
      ],
      "name": "getRolePersonnel",
      "outputs": [
        {
          "internalType": "string",
          "name": "",
          "type": "string"
        }
      ],
      "payable": false,
      "stateMutability": "view",
      "type": "function"
    },
    {
      "constant": true,
      "inputs": [
        {
          "internalType": "uint256",
          "name": "idPersonnel",
          "type": "uint256"
        }
      ],
      "name": "getNomPersonnel",
      "outputs": [
        {
          "internalType": "string",
          "name": "",
          "type": "string"
        }
      ],
      "payable": false,
      "stateMutability": "view",
      "type": "function"
    },
    {
      "constant": true,
      "inputs": [
        {
          "internalType": "uint256",
          "name": "idPersonnel",
          "type": "uint256"
        }
      ],
      "name": "getPrenomPersonnel",
      "outputs": [
        {
          "internalType": "string",
          "name": "",
          "type": "string"
        }
      ],
      "payable": false,
      "stateMutability": "view",
      "type": "function"
    },
    {
      "constant": true,
      "inputs": [
        {
          "internalType": "uint256",
          "name": "idPersonnel",
          "type": "uint256"
        }
      ],
      "name": "getMailPersonnel",
      "outputs": [
        {
          "internalType": "string",
          "name": "",
          "type": "string"
        }
      ],
      "payable": false,
      "stateMutability": "view",
      "type": "function"
    }
  ],
  "bytecode": "0x60806040523480156200001157600080fd5b50620000fa6040518060400160405280600781526020017f4d65646563696e000000000000000000000000000000000000000000000000008152506040518060400160405280600681526020017f44454744454700000000000000000000000000000000000000000000000000008152506040518060400160405280600681526020017f48696368616d00000000000000000000000000000000000000000000000000008152506040518060400160405280601381526020017f68646567646567323440676d61696c2e636f6d00000000000000000000000000815250620001e860201b60201c565b620001e26040518060400160405280600781526020017f4d65646563696e000000000000000000000000000000000000000000000000008152506040518060400160405280600a81526020017f475545524d4f55434845000000000000000000000000000000000000000000008152506040518060400160405280600d81526020017f4162656420656c20696c6c6168000000000000000000000000000000000000008152506040518060400160405280601481526020017f475545524d4f5543484540676d61696c2e636f6d000000000000000000000000815250620001e860201b60201c565b620003ae565b6000600180805490500190506001808054905001600281905550806000808381526020019081526020016000206000018190555084600080838152602001908152602001600020600101908051906020019062000247929190620002ff565b5083600080838152602001908152602001600020600201908051906020019062000273929190620002ff565b508260008083815260200190815260200160002060030190805190602001906200029f929190620002ff565b50816000808381526020019081526020016000206004019080519060200190620002cb929190620002ff565b5060018190806001815401808255809150509060018203906000526020600020016000909192909190915055505050505050565b828054600181600116156101000203166002900490600052602060002090601f016020900481019282601f106200034257805160ff191683800117855562000373565b8280016001018555821562000373579182015b828111156200037257825182559160200191906001019062000355565b5b50905062000382919062000386565b5090565b620003ab91905b80821115620003a75760008160009055506001016200038d565b5090565b90565b610bf780620003be6000396000f3fe608060405234801561001057600080fd5b50600436106100935760003560e01c80636fbac108116100665780636fbac108146101da578063b0d853e714610281578063c039be5b14610328578063cbb1d6b6146105a8578063d7569c2e146105ea57610093565b806321a7df88146100985780633736f8801461013f57806352dc7eb61461019e578063572ff0c7146101bc575b600080fd5b6100c4600480360360208110156100ae57600080fd5b8101908080359060200190929190505050610691565b6040518080602001828103825283818151815260200191508051906020019080838360005b838110156101045780820151818401526020810190506100e9565b50505050905090810190601f1680156101315780820380516001836020036101000a031916815260200191505b509250505060405180910390f35b61014761074e565b6040518080602001828103825283818151815260200191508051906020019060200280838360005b8381101561018a57808201518184015260208101905061016f565b505050509050019250505060405180910390f35b6101a66107a6565b6040518082815260200191505060405180910390f35b6101c46107ac565b6040518082815260200191505060405180910390f35b610206600480360360208110156101f057600080fd5b81019080803590602001909291905050506107b6565b6040518080602001828103825283818151815260200191508051906020019080838360005b8381101561024657808201518184015260208101905061022b565b50505050905090810190601f1680156102735780820380516001836020036101000a031916815260200191505b509250505060405180910390f35b6102ad6004803603602081101561029757600080fd5b8101908080359060200190929190505050610873565b6040518080602001828103825283818151815260200191508051906020019080838360005b838110156102ed5780820151818401526020810190506102d2565b50505050905090810190601f16801561031a5780820380516001836020036101000a031916815260200191505b509250505060405180910390f35b6105a66004803603608081101561033e57600080fd5b810190808035906020019064010000000081111561035b57600080fd5b82018360208201111561036d57600080fd5b8035906020019184600183028401116401000000008311171561038f57600080fd5b91908080601f016020809104026020016040519081016040528093929190818152602001838380828437600081840152601f19601f820116905080830192505050505050509192919290803590602001906401000000008111156103f257600080fd5b82018360208201111561040457600080fd5b8035906020019184600183028401116401000000008311171561042657600080fd5b91908080601f016020809104026020016040519081016040528093929190818152602001838380828437600081840152601f19601f8201169050808301925050505050505091929192908035906020019064010000000081111561048957600080fd5b82018360208201111561049b57600080fd5b803590602001918460018302840111640100000000831117156104bd57600080fd5b91908080601f016020809104026020016040519081016040528093929190818152602001838380828437600081840152601f19601f8201169050808301925050505050505091929192908035906020019064010000000081111561052057600080fd5b82018360208201111561053257600080fd5b8035906020019184600183028401116401000000008311171561055457600080fd5b91908080601f016020809104026020016040519081016040528093929190818152602001838380828437600081840152601f19601f820116905080830192505050505050509192919290505050610930565b005b6105d4600480360360208110156105be57600080fd5b8101908080359060200190929190505050610a3f565b6040518082815260200191505060405180910390f35b6106166004803603602081101561060057600080fd5b8101908080359060200190929190505050610a60565b6040518080602001828103825283818151815260200191508051906020019080838360005b8381101561065657808201518184015260208101905061063b565b50505050905090810190601f1680156106835780820380516001836020036101000a031916815260200191505b509250505060405180910390f35b606060008060008481526020019081526020016000209050806003018054600181600116156101000203166002900480601f0160208091040260200160405190810160405280929190818152602001828054600181600116156101000203166002900480156107415780601f1061071657610100808354040283529160200191610741565b820191906000526020600020905b81548152906001019060200180831161072457829003601f168201915b5050505050915050919050565b6060600180548060200260200160405190810160405280929190818152602001828054801561079c57602002820191906000526020600020905b815481526020019060010190808311610788575b5050505050905090565b60025481565b6000600254905090565b606060008060008481526020019081526020016000209050806002018054600181600116156101000203166002900480601f0160208091040260200160405190810160405280929190818152602001828054600181600116156101000203166002900480156108665780601f1061083b57610100808354040283529160200191610866565b820191906000526020600020905b81548152906001019060200180831161084957829003601f168201915b5050505050915050919050565b606060008060008481526020019081526020016000209050806001018054600181600116156101000203166002900480601f0160208091040260200160405190810160405280929190818152602001828054600181600116156101000203166002900480156109235780601f106108f857610100808354040283529160200191610923565b820191906000526020600020905b81548152906001019060200180831161090657829003601f168201915b5050505050915050919050565b6000600180805490500190506001808054905001600281905550806000808381526020019081526020016000206000018190555084600080838152602001908152602001600020600101908051906020019061098d929190610b1d565b508360008083815260200190815260200160002060020190805190602001906109b7929190610b1d565b508260008083815260200190815260200160002060030190805190602001906109e1929190610b1d565b50816000808381526020019081526020016000206004019080519060200190610a0b929190610b1d565b5060018190806001815401808255809150509060018203906000526020600020016000909192909190915055505050505050565b60018181548110610a4c57fe5b906000526020600020016000915090505481565b606060008060008481526020019081526020016000209050806004018054600181600116156101000203166002900480601f016020809104026020016040519081016040528092919081815260200182805460018160011615610100020316600290048015610b105780601f10610ae557610100808354040283529160200191610b10565b820191906000526020600020905b815481529060010190602001808311610af357829003601f168201915b5050505050915050919050565b828054600181600116156101000203166002900490600052602060002090601f016020900481019282601f10610b5e57805160ff1916838001178555610b8c565b82800160010185558215610b8c579182015b82811115610b8b578251825591602001919060010190610b70565b5b509050610b999190610b9d565b5090565b610bbf91905b80821115610bbb576000816000905550600101610ba3565b5090565b9056fea265627a7a723158206dda52d9c3b128c0b3595e787cfaab190021c98484cb7118c9fd9cdf39a3ba1b64736f6c63430005100032",
  "source": "// SPDX-License-Identifier: MIT\n\npragma solidity >=0.4.21 <0.7.0;\n\n\ncontract PersonnelsSante {\n    struct PersonnelSante {\n        uint256 idPersonnel;\n        string rolePersonnel;\n        string nomPersonnel;\n        string prenomPersonnel;\n        string mailPersonnel;\n    }\n\n    mapping(uint256 => PersonnelSante) PersonnelSante_Struct;\n\n    uint256[] public listPersonnel;\n\n    uint256 public nombrePersonnels;\n\n    constructor () public{\n\n        setNewPersonnel(\"Medecin\",\"DEGDEG\",\"Hicham\",\"hdegdeg24@gmail.com\");\n        setNewPersonnel(\"Medecin\",\"GUERMOUCHE\",\"Abed el illah\",\"GUERMOUCHE@gmail.com\");\n    \n    }\n\n    function setNewPersonnel(\n        string memory rolePersonnel,\n        string memory nomPersonnel,\n        string memory prenomPersonnel,\n        string memory mailPersonnel\n    ) public {\n        // PersonnelSante_Struct[msg.sender].address_sender = msg.sender;\n        uint256 newidPersonnel = listPersonnel.length + 1;\n        nombrePersonnels = listPersonnel.length + 1;\n\n        PersonnelSante_Struct[newidPersonnel].idPersonnel = newidPersonnel;\n        PersonnelSante_Struct[newidPersonnel].rolePersonnel = rolePersonnel;\n        PersonnelSante_Struct[newidPersonnel].nomPersonnel = nomPersonnel;\n        PersonnelSante_Struct[newidPersonnel].prenomPersonnel = prenomPersonnel;\n        PersonnelSante_Struct[newidPersonnel].mailPersonnel = mailPersonnel;\n\n        listPersonnel.push(newidPersonnel);\n    }\n\n    function getNombrePersonnels() public view returns (uint256 ) {\n        return nombrePersonnels;\n    }\n\n    function getAllid() public view returns (uint256[] memory) {\n        return listPersonnel;\n    }\n\n    function getRolePersonnel(uint256 idPersonnel)\n        public\n        view\n        returns (string memory)\n    {\n        PersonnelSante storage tmp = PersonnelSante_Struct[idPersonnel];\n        return tmp.rolePersonnel;\n    }\n\n    function getNomPersonnel(uint256 idPersonnel)\n        public\n        view\n        returns (string memory)\n    {\n        PersonnelSante storage tmp = PersonnelSante_Struct[idPersonnel];\n        return tmp.nomPersonnel;\n    }\n\n    function getPrenomPersonnel(uint256 idPersonnel)\n        public\n        view\n        returns (string memory)\n    {\n        PersonnelSante storage tmp = PersonnelSante_Struct[idPersonnel];\n        return tmp.prenomPersonnel;\n    }\n\n    function getMailPersonnel(uint256 idPersonnel)\n        public\n        view\n        returns (string memory)\n    {\n        PersonnelSante storage tmp = PersonnelSante_Struct[idPersonnel];\n        return tmp.mailPersonnel;\n    }\n}\n",
  "sourcePath": "/root/memoire1.1/smart-contract-health-care/contracts/PersonnelsSante.sol",
  "compiler": {
    "name": "solc",
    "version": "0.5.16+commit.9c3226ce.Emscripten.clang"
  },
  "schemaVersion": "3.1.0",
  "updatedAt": "2020-06-13T18:11:21.798Z",
  "networkType": "ethereum",
  "devdoc": {
    "methods": {}
  },
  "userdoc": {
    "methods": {}
  }
}